:100000000C9434000C94B7040C9427040C94510005
:100010000C9451000C9451000C9451000C9451001C
:100020000C9451000C9438040C9451000C94510021
:100030000C9451000C9410040C9451000C94510039
:100040000C9448040C9451000C9452010C945100EF
:100050000C9451000C9451000C9451000C945100DC
:100060000C9451000C94510011241FBECFEFD8E026
:10007000DEBFCDBF11E0A0E0B1E0E6E9FAE002C0EA
:1000800005900D92AA37B107D9F721E0AAE7B1E0B0
:1000900001C01D92AE39B207E1F70E94C2020C9472
:1000A00049050C9400008CE090E09093C50080938B
:1000B000C400E0ECF0E080818260808388E9809376
:1000C000C1000895E0ECF0E0908195FFFDCF8093B2
:1000D000C6000895CF93DF93EC018881882331F027
:1000E00021960E94620089918111FBCFDF91CF910F
:1000F00008950F931F93CF93DF93AC015F7020E0BF
:1001000030E0392F307FEC01CF70DD27C20FD31FD5
:1001100020E030E0352F2C0F3D1F807F9927E9012B
:10012000C80FD91F9E01329522952F7023273F704B
:100130002327A7E4B3E00E9426058C0116950795B6
:100140001695079516950795802F80630E9462008B
:1001500020E137E2029FC001039F900D129F900D96
:1001600011249E01281B390B369527953695279526
:1001700036952795A5ECB0E20E94260592958295CA
:100180008F7089279F70892780630E9462009E017B
:10019000369527953695279536952795A5ECB0E2A7
:1001A0000E942605929582958F7089279F708927D6
:1001B00048EE53E0849F9001859F300D949F300D51
:1001C0001124CE01821B930B9C0136952795369501
:1001D0002795ABE7B4E10E94260596958795806345
:1001E0000E9462009E013695279536952795ABE7CC
:1001F000B4E10E9426059695879544E6489F9001B4
:10020000499F300D1124CE01821B930B9C01ADEC54
:10021000BCEC0E94260596958795969587959695B0
:10022000879580630E9462009E01ADECBCEC0E9449
:1002300026059695879596958795969587959C0121
:10024000220F331F880F991F880F991F880F991F3E
:10025000820F931F9E01281B390BC90180630E94E6
:100260006200DF91CF911F910F910895482F209147
:10027000880130E0C90101966CE070E00E9412052F
:1002800090918901981759F0E0918801F0E0E657C4
:10029000FE4F40838093880180E090E008958FEFC7
:1002A0009FEF08951F920F920FB60F9211242F9374
:1002B0003F934F935F936F937F938F939F93AF93EE
:1002C000BF93EF93FF938091C6000E943601FF9188
:1002D000EF91BF91AF919F918F917F916F915F91BE
:1002E0004F913F912F910F900FBE0F901F90189537
:1002F0009091880180918901981799F0E091890186
:10030000F0E0E657FE4F20818091890190E0019650
:100310006CE070E00E94120580938901822F90E0CA
:1003200008958FEF9FEF08952091880190918901A2
:1003300081E0291301C080E0089510928901109294
:1003400088010895389A399A40984198259A2D98AD
:1003500008958130A1F4623049F018F4613041F021
:100360000895633039F0643041F00895409A08955B
:10037000419A0895409A419A08952D9A08958111BD
:1003800013C0623049F018F4613041F008956330D1
:1003900039F0643041F008954098089541980895E7
:1003A0004098419808952D980895CF93DF93EC01DC
:1003B00088810E94620089810E9462008A810E9475
:1003C00062008B810E9462008C810E9462008D819C
:1003D0000E9462008E810E9462008F810E946200F2
:1003E000DF91CF9108950F931F93CF93DF939EE7F3
:1003F000909396019FEF9093970196E090939801C8
:100400008093990110929A010BE911E0F801708331
:10041000CCE9D1E068838FEE80939D010E949D011D
:1004200086E991E00E94D501F8011082188283EDDF
:1004300090E30197F1F700C000000E949401813021
:10044000E1F40E9478018E37E1F70E9478018093F1
:1004500097010E947801809398010E94780180930F
:1004600099010E94780180939A010E9478018093FB
:100470009B010E94780180939C01DF91CF911F9195
:100480000F910895CF93DF938EE7809396018FEFBE
:100490008093970186E08093980188E48093990186
:1004A00010929A0110929B0110929C018FEE809302
:1004B0009D010E949D0186E991E00E94D50183ED96
:1004C00090E30197F1F700C000000E949401813091
:1004D00051F50E9478018E37E1F70E9478018093F0
:1004E00097010E947801809398010E947801C9E9E0
:1004F000D1E088830E94780180939A010E9478015C
:1005000080939B010E94780180939C019881903494
:1005100069F020919B0130E0322F2227A901480F7A
:10052000511DCA0105C080E090E002C080E090E06B
:10053000DF91CF9108950E949D0160E070E082E418
:100540000E94F30181E090919C01911101C080E033
:1005500008950E94960420917E0130917F018217B8
:10056000930728F480917B01816080937B0108953B
:100570000E940905882329F080917B018260809385
:100580007B0108950E9482040E948B040E949B04B8
:100590000E94A1040E9453000E940F050E94A20124
:1005A0002FEB86EC9DE2215080409040E1F700C0A7
:1005B0000000789461E081E00E94A9012FE38DE0C2
:1005C00093E0215080409040E1F700C0000062E0DD
:1005D00081E00E94A9012FE38DE093E0215080404B
:1005E0009040E1F700C0000061E080E00E94A901B6
:1005F0002FE38DE093E0215080409040E1F700C070
:10060000000062E080E00E94A90181E091E00E9488
:100610006A000E9442042FE38DE093E02150804065
:100620009040E1F700C000000E949604885E93406D
:1006300090937F0180937E018CE091E00E946A009C
:1006400080917E0190917F010E9479000E94420278
:1006500090937D0180937C018FE191E00E946A007C
:1006600080917C0190917D010E9479008AE00E9436
:10067000620060E070E08CE00E94F30162E081E0E3
:100680000E94A90183ED90E30197F1F700C00000FB
:1006900062E080E00E94A90187EA91E60197F1F704
:1006A00000C0000080917A01882321F0813009F494
:1006B00077C0B1C061E081E00E94A9010E94B80248
:1006C0000E94A90228988AE00E94620088E291E0D4
:1006D0000E946A0080E391E00E946A0080917B01A1
:1006E000817090E00E9479008BE391E00E946A00A3
:1006F00080917B018695817090E00E9479008091C5
:100700007B0181FFBBCF0E94B80280917B0181FFFA
:100710003AC08AE00E94620086E491E00E946A008A
:100720008091000190E00E9479006091000170E0EA
:1007300083E00E94F3019FE32DE083E0915020408D
:100740008040E1F700C00000209100012F5F20935E
:10075000000130E080917C0190917D018217930728
:1007600018F481E08093000180917B018460809384
:100770007B0181E080937A0186E591E00E946A0026
:100780008AE00E94620080917B018E7F80937B01D2
:1007900080917B018D7F80937B010E940C056ECF41
:1007A00061E080E00E94A9010E94B8020E94A902B3
:1007B000289A8AE00E94620088E691E00E946A001E
:1007C00080E391E00E946A0080917B01817090E05B
:1007D0000E9479008BE391E00E946A0080917B0186
:1007E0008695817090E00E9479000E949B028111A1
:1007F00045CF10927A0160E070E08EE00E94F30134
:1008000028989FE322E48FE0915020408040E1F758
:1008100000C0000033CF80E791E00E946A002ECF35
:100820001F920F920FB60F9211248F939F93809176
:1008300083019091840101969093840180938301B8
:100840009F918F910F900FBE0F901F9018951F9240
:100850000F920FB60F9211248F93809187018F5FB3
:10086000809387018F910F900FBE0F901F90189566
:100870001F920F920FB60F9211240F900FBE0F9080
:100880001F9018955C9A85E08A95F1F75C98089519
:100890001F920F920FB60F9211242F933F934F93F5
:1008A0005F936F937F938F939F93AF93BF93EF93D8
:1008B000FF93809180019091810186332CE0920713
:1008C00030F4019690938101809380010AC01092C8
:1008D00081011092800185B58E7F85BD16BC0E9476
:1008E0004204FF91EF91BF91AF919F918F917F91C2
:1008F0006F915F914F913F912F910F900FBE0F908D
:100900001F90189553985B9AE9E6F0E080818C601F
:100910008083E99A08955C98549A5A9A5298E9E625
:10092000F0E0808183608083E89A0895809185015A
:10093000909186010895EEE6F0E0808181608083E9
:1009400008951092850010928400EFE6F0E0808117
:10095000816080830895E1E8F0E080818160808398
:100960000895E1E8F0E080818E7F808308951F92F2
:100970000F920FB60F9211242F933F934F935F93D3
:100980006F937F938F939F93AF93BF93EF93FF9357
:10099000809182018823F9F00E94B1048091830143
:1009A00090918401E4E8F0E0808191819093860148
:1009B000809385011092840110928301118210822C
:1009C00010928201E9E6F0E080818360808385B542
:1009D000816085BD0DC00E94AB0481E080938201DF
:1009E000E9E6F0E080818E7F808380818260808371
:1009F000FF91EF91BF91AF919F918F917F916F91F7
:100A00005F914F913F912F910F900FBE0F901F90CC
:100A10001895809187010895109287010895209A72
:100A20002898089597FB072E16F4009407D077FDB9
:100A300009D00E94350507FC05D03EF490958195BC
:100A40009F4F0895709561957F4F0895A29FB001C3
:100A5000B39FC001A39F700D811D1124911DB29FF2
:100A6000700D811D1124911D0895AA1BBB1B51E11E
:100A700007C0AA1FBB1FA617B70710F0A61BB70B0E
:100A8000881F991F5A95A9F780959095BC01CD01B3
:060A90000895F894FFCF69
:100A96000153657269616C204F4B210055535320F9
:100AA60063616C696272617465642061743A007492
:100AB6007261636B733A20005354414E44425900AD
:100AC60020666C61675F5553533A0020666C616718
:100AD6005F5049523A00506C6179696E67207472B2
:100AE60061636B3A200050726573656E63652064BE
:100AF6006574656374656400414354495645200036
:0A0B060064656661756C7465640037
:00000001FF
